{
  "contractName": "ElectionV2",
  "abi": [
    {
      "inputs": [],
      "stateMutability": "nonpayable",
      "type": "constructor"
    },
    {
      "inputs": [],
      "name": "contractVoteCounts",
      "outputs": [
        {
          "internalType": "uint256",
          "name": "",
          "type": "uint256"
        }
      ],
      "stateMutability": "view",
      "type": "function",
      "constant": true
    },
    {
      "inputs": [
        {
          "internalType": "uint256",
          "name": "",
          "type": "uint256"
        }
      ],
      "name": "contractVotes",
      "outputs": [
        {
          "internalType": "uint256",
          "name": "id",
          "type": "uint256"
        },
        {
          "internalType": "string",
          "name": "name",
          "type": "string"
        },
        {
          "internalType": "string",
          "name": "organizerName",
          "type": "string"
        },
        {
          "internalType": "address",
          "name": "organizerAddress",
          "type": "address"
        },
        {
          "internalType": "string",
          "name": "publicKey",
          "type": "string"
        },
        {
          "internalType": "string",
          "name": "privateKey",
          "type": "string"
        },
        {
          "internalType": "uint256",
          "name": "voteOptionCount",
          "type": "uint256"
        },
        {
          "internalType": "uint256",
          "name": "totalVoteCount",
          "type": "uint256"
        },
        {
          "internalType": "bool",
          "name": "voteEnd",
          "type": "bool"
        }
      ],
      "stateMutability": "view",
      "type": "function",
      "constant": true
    },
    {
      "inputs": [
        {
          "internalType": "address",
          "name": "",
          "type": "address"
        },
        {
          "internalType": "uint256",
          "name": "",
          "type": "uint256"
        }
      ],
      "name": "myOrganizedVotes",
      "outputs": [
        {
          "internalType": "uint256",
          "name": "",
          "type": "uint256"
        }
      ],
      "stateMutability": "view",
      "type": "function",
      "constant": true
    },
    {
      "inputs": [
        {
          "internalType": "string",
          "name": "_name",
          "type": "string"
        },
        {
          "internalType": "string",
          "name": "_organizerName",
          "type": "string"
        },
        {
          "internalType": "string",
          "name": "_publicKey",
          "type": "string"
        },
        {
          "internalType": "string[]",
          "name": "_options",
          "type": "string[]"
        }
      ],
      "name": "addVote",
      "outputs": [
        {
          "internalType": "uint256",
          "name": "",
          "type": "uint256"
        }
      ],
      "stateMutability": "nonpayable",
      "type": "function"
    },
    {
      "inputs": [],
      "name": "getMyOrganizedVotes",
      "outputs": [
        {
          "internalType": "uint256[]",
          "name": "",
          "type": "uint256[]"
        }
      ],
      "stateMutability": "view",
      "type": "function",
      "constant": true
    },
    {
      "inputs": [
        {
          "internalType": "uint256",
          "name": "voteID",
          "type": "uint256"
        }
      ],
      "name": "getVoteOptionsByVoteID",
      "outputs": [
        {
          "components": [
            {
              "internalType": "uint256",
              "name": "id",
              "type": "uint256"
            },
            {
              "internalType": "string",
              "name": "name",
              "type": "string"
            }
          ],
          "internalType": "struct ElectionV2.VoteOption[]",
          "name": "",
          "type": "tuple[]"
        }
      ],
      "stateMutability": "view",
      "type": "function",
      "constant": true
    },
    {
      "inputs": [
        {
          "internalType": "uint256",
          "name": "voteID",
          "type": "uint256"
        }
      ],
      "name": "getVoteTicketsByVoteID",
      "outputs": [
        {
          "components": [
            {
              "internalType": "uint256",
              "name": "id",
              "type": "uint256"
            },
            {
              "internalType": "string",
              "name": "encryptedBallot",
              "type": "string"
            },
            {
              "internalType": "string",
              "name": "signature",
              "type": "string"
            }
          ],
          "internalType": "struct ElectionV2.VoteTicket[]",
          "name": "",
          "type": "tuple[]"
        }
      ],
      "stateMutability": "view",
      "type": "function",
      "constant": true
    },
    {
      "inputs": [
        {
          "internalType": "uint256",
          "name": "voteID",
          "type": "uint256"
        }
      ],
      "name": "getVoteResultsByVoteID",
      "outputs": [
        {
          "internalType": "uint256[]",
          "name": "",
          "type": "uint256[]"
        }
      ],
      "stateMutability": "view",
      "type": "function",
      "constant": true
    },
    {
      "inputs": [
        {
          "internalType": "uint256",
          "name": "voteID",
          "type": "uint256"
        },
        {
          "internalType": "string",
          "name": "_encryptedBallot",
          "type": "string"
        },
        {
          "internalType": "string",
          "name": "_signature",
          "type": "string"
        }
      ],
      "name": "caseVoteByVoteID",
      "outputs": [],
      "stateMutability": "nonpayable",
      "type": "function"
    },
    {
      "inputs": [
        {
          "internalType": "uint256",
          "name": "voteID",
          "type": "uint256"
        },
        {
          "internalType": "string",
          "name": "_privateKey",
          "type": "string"
        },
        {
          "internalType": "uint256[]",
          "name": "voteOptionSuccessTicketCounts",
          "type": "uint256[]"
        }
      ],
      "name": "endVoteByVoteID",
      "outputs": [],
      "stateMutability": "nonpayable",
      "type": "function"
    }
  ],
  "bytecode": "0x608060405234801561001057600080fd5b5061213e806100206000396000f3fe608060405234801561001057600080fd5b506004361061009e5760003560e01c8063a6c611ba11610066578063a6c611ba14610173578063a83874ad146101a3578063a9d850d4146101c1578063f0a22e91146101f1578063fd6a29731461020f5761009e565b80631b938942146100a35780631ce4f3f6146100db5780632d307bf3146100f7578063908c8457146101135780639d01c3b614610143575b600080fd5b6100bd60048036038101906100b8919061154d565b61023f565b6040516100d299989796959493929190611b0e565b60405180910390f35b6100f560048036038101906100f091906115f5565b6104da565b005b610111600480360381019061010c9190611576565b610617565b005b61012d6004803603810190610128919061154d565b61081d565b60405161013a91906119ed565b60405180910390f35b61015d6004803603810190610158919061154d565b610a45565b60405161016a9190611a0f565b60405180910390f35b61018d6004803603810190610188919061148a565b610cff565b60405161019a9190611af3565b60405180910390f35b6101ab610f7d565b6040516101b89190611af3565b60405180910390f35b6101db60048036038101906101d6919061154d565b610f83565b6040516101e89190611a31565b60405180910390f35b6101f96110fb565b6040516102069190611a31565b60405180910390f35b6102296004803603810190610224919061144e565b611190565b6040516102369190611af3565b60405180910390f35b600160205280600052604060002060009150905080600001549080600101805461026890611e51565b80601f016020809104026020016040519081016040528092919081815260200182805461029490611e51565b80156102e15780601f106102b6576101008083540402835291602001916102e1565b820191906000526020600020905b8154815290600101906020018083116102c457829003601f168201915b5050505050908060020180546102f690611e51565b80601f016020809104026020016040519081016040528092919081815260200182805461032290611e51565b801561036f5780601f106103445761010080835404028352916020019161036f565b820191906000526020600020905b81548152906001019060200180831161035257829003601f168201915b5050505050908060030160009054906101000a900473ffffffffffffffffffffffffffffffffffffffff16908060040180546103aa90611e51565b80601f01602080910402602001604051908101604052809291908181526020018280546103d690611e51565b80156104235780601f106103f857610100808354040283529160200191610423565b820191906000526020600020905b81548152906001019060200180831161040657829003601f168201915b50505050509080600501805461043890611e51565b80601f016020809104026020016040519081016040528092919081815260200182805461046490611e51565b80156104b15780601f10610486576101008083540402835291602001916104b1565b820191906000526020600020905b81548152906001019060200180831161049457829003601f168201915b50505050509080600601549080600901549080600b0160009054906101000a900460ff16905089565b6000831180156104ec57506000548311155b61052b576040517f08c379a000000000000000000000000000000000000000000000000000000000815260040161052290611ab3565b60405180910390fd5b60006001600085815260200190815260200160002090506000151581600b0160009054906101000a900460ff1615151461059a576040517f08c379a000000000000000000000000000000000000000000000000000000000815260040161059190611a53565b60405180910390fd5b8060090160008154809291906105af90611eb4565b9190505550600081600a01600083600901548152602001908152602001600020905081600901548160000181905550838160010190805190602001906105f69291906111c1565b508281600201908051906020019061060f9291906111c1565b505050505050565b60008311801561062957506000548311155b610668576040517f08c379a000000000000000000000000000000000000000000000000000000000815260040161065f90611ab3565b60405180910390fd5b60006001600085815260200190815260200160002090503373ffffffffffffffffffffffffffffffffffffffff168160030160009054906101000a900473ffffffffffffffffffffffffffffffffffffffff1673ffffffffffffffffffffffffffffffffffffffff1614610711576040517f08c379a000000000000000000000000000000000000000000000000000000000815260040161070890611ad3565b60405180910390fd5b8060060154825114610758576040517f08c379a000000000000000000000000000000000000000000000000000000000815260040161074f90611a93565b60405180910390fd5b828160050190805190602001906107709291906111c1565b5060005b81600601548110156107f9578281815181106107b9577f4e487b7100000000000000000000000000000000000000000000000000000000600052603260045260246000fd5b60200260200101518260080160006001846107d49190611d3d565b81526020019081526020016000208190555080806107f190611eb4565b915050610774565b50600181600b0160006101000a81548160ff02191690831515021790555050505050565b606060008211801561083157506000548211155b610870576040517f08c379a000000000000000000000000000000000000000000000000000000000815260040161086790611ab3565b60405180910390fd5b60006001600084815260200190815260200160002090506000816006015467ffffffffffffffff8111156108cd577f4e487b7100000000000000000000000000000000000000000000000000000000600052604160045260246000fd5b60405190808252806020026020018201604052801561090657816020015b6108f3611247565b8152602001906001900390816108eb5790505b5090506000600190505b82600601548111610a3a578260070160008281526020019081526020016000206040518060400160405290816000820154815260200160018201805461095590611e51565b80601f016020809104026020016040519081016040528092919081815260200182805461098190611e51565b80156109ce5780601f106109a3576101008083540402835291602001916109ce565b820191906000526020600020905b8154815290600101906020018083116109b157829003601f168201915b505050505081525050826001836109e59190611d93565b81518110610a1c577f4e487b7100000000000000000000000000000000000000000000000000000000600052603260045260246000fd5b60200260200101819052508080610a3290611eb4565b915050610910565b508092505050919050565b6060600082118015610a5957506000548211155b610a98576040517f08c379a0000000000000000000000000000000000000000000000000000000008152600401610a8f90611ab3565b60405180910390fd5b60006001600084815260200190815260200160002090506000816009015467ffffffffffffffff811115610af5577f4e487b7100000000000000000000000000000000000000000000000000000000600052604160045260246000fd5b604051908082528060200260200182016040528015610b2e57816020015b610b1b611261565b815260200190600190039081610b135790505b5090506000600190505b82600901548111610cf45782600a01600082815260200190815260200160002060405180606001604052908160008201548152602001600182018054610b7d90611e51565b80601f0160208091040260200160405190810160405280929190818152602001828054610ba990611e51565b8015610bf65780601f10610bcb57610100808354040283529160200191610bf6565b820191906000526020600020905b815481529060010190602001808311610bd957829003601f168201915b50505050508152602001600282018054610c0f90611e51565b80601f0160208091040260200160405190810160405280929190818152602001828054610c3b90611e51565b8015610c885780601f10610c5d57610100808354040283529160200191610c88565b820191906000526020600020905b815481529060010190602001808311610c6b57829003601f168201915b50505050508152505082600183610c9f9190611d93565b81518110610cd6577f4e487b7100000000000000000000000000000000000000000000000000000000600052603260045260246000fd5b60200260200101819052508080610cec90611eb4565b915050610b38565b508092505050919050565b6000808251118015610d1357506014825111155b610d52576040517f08c379a0000000000000000000000000000000000000000000000000000000008152600401610d4990611a73565b60405180910390fd5b600080815480929190610d6490611eb4565b9190505550600060016000805481526020019081526020016000209050600054816000018190555085816001019080519060200190610da49291906111c1565b50338160030160006101000a81548173ffffffffffffffffffffffffffffffffffffffff021916908373ffffffffffffffffffffffffffffffffffffffff16021790555084816002019080519060200190610e009291906111c1565b5083816004019080519060200190610e199291906111c1565b506000816009018190555060008160060181905550600081600b0160006101000a81548160ff021916908315150217905550600260003373ffffffffffffffffffffffffffffffffffffffff1673ffffffffffffffffffffffffffffffffffffffff16815260200190815260200160002081600001549080600181540180825580915050600190039060005260206000200160009091909190915055825181600601819055506000600190505b81600601548111610f6c576000826007016000838152602001908152602001600020905081816000018190555084600183610f019190611d93565b81518110610f38577f4e487b7100000000000000000000000000000000000000000000000000000000600052603260045260246000fd5b6020026020010151816001019080519060200190610f579291906111c1565b50508080610f6490611eb4565b915050610ec6565b508060000154915050949350505050565b60005481565b6060600082118015610f9757506000548211155b610fd6576040517f08c379a0000000000000000000000000000000000000000000000000000000008152600401610fcd90611ab3565b60405180910390fd5b60006001600084815260200190815260200160002090506000816006015467ffffffffffffffff811115611033577f4e487b7100000000000000000000000000000000000000000000000000000000600052604160045260246000fd5b6040519080825280602002602001820160405280156110615781602001602082028036833780820191505090505b5090506000600190505b826006015481116110f057826008016000828152602001908152602001600020548260018361109a9190611d93565b815181106110d1577f4e487b7100000000000000000000000000000000000000000000000000000000600052603260045260246000fd5b60200260200101818152505080806110e890611eb4565b91505061106b565b508092505050919050565b6060600260003373ffffffffffffffffffffffffffffffffffffffff1673ffffffffffffffffffffffffffffffffffffffff16815260200190815260200160002080548060200260200160405190810160405280929190818152602001828054801561118657602002820191906000526020600020905b815481526020019060010190808311611172575b5050505050905090565b600260205281600052604060002081815481106111ac57600080fd5b90600052602060002001600091509150505481565b8280546111cd90611e51565b90600052602060002090601f0160209004810192826111ef5760008555611236565b82601f1061120857805160ff1916838001178555611236565b82800160010185558215611236579182015b8281111561123557825182559160200191906001019061121a565b5b5090506112439190611282565b5090565b604051806040016040528060008152602001606081525090565b60405180606001604052806000815260200160608152602001606081525090565b5b8082111561129b576000816000905550600101611283565b5090565b60006112b26112ad84611bdc565b611bb7565b9050808382526020820190508260005b858110156112f257813585016112d8888261140f565b8452602084019350602083019250506001810190506112c2565b5050509392505050565b600061130f61130a84611c08565b611bb7565b9050808382526020820190508285602086028201111561132e57600080fd5b60005b8581101561135e57816113448882611439565b845260208401935060208301925050600181019050611331565b5050509392505050565b600061137b61137684611c34565b611bb7565b90508281526020810184848401111561139357600080fd5b61139e848285611e0f565b509392505050565b6000813590506113b5816120da565b92915050565b600082601f8301126113cc57600080fd5b81356113dc84826020860161129f565b91505092915050565b600082601f8301126113f657600080fd5b81356114068482602086016112fc565b91505092915050565b600082601f83011261142057600080fd5b8135611430848260208601611368565b91505092915050565b600081359050611448816120f1565b92915050565b6000806040838503121561146157600080fd5b600061146f858286016113a6565b925050602061148085828601611439565b9150509250929050565b600080600080608085870312156114a057600080fd5b600085013567ffffffffffffffff8111156114ba57600080fd5b6114c68782880161140f565b945050602085013567ffffffffffffffff8111156114e357600080fd5b6114ef8782880161140f565b935050604085013567ffffffffffffffff81111561150c57600080fd5b6115188782880161140f565b925050606085013567ffffffffffffffff81111561153557600080fd5b611541878288016113bb565b91505092959194509250565b60006020828403121561155f57600080fd5b600061156d84828501611439565b91505092915050565b60008060006060848603121561158b57600080fd5b600061159986828701611439565b935050602084013567ffffffffffffffff8111156115b657600080fd5b6115c28682870161140f565b925050604084013567ffffffffffffffff8111156115df57600080fd5b6115eb868287016113e5565b9150509250925092565b60008060006060848603121561160a57600080fd5b600061161886828701611439565b935050602084013567ffffffffffffffff81111561163557600080fd5b6116418682870161140f565b925050604084013567ffffffffffffffff81111561165e57600080fd5b61166a8682870161140f565b9150509250925092565b6000611680838361193b565b905092915050565b60006116948383611978565b905092915050565b60006116a883836119cf565b60208301905092915050565b6116bd81611dc7565b82525050565b60006116ce82611c95565b6116d88185611ce8565b9350836020820285016116ea85611c65565b8060005b8581101561172657848403895281516117078582611674565b945061171283611cc1565b925060208a019950506001810190506116ee565b50829750879550505050505092915050565b600061174382611ca0565b61174d8185611cf9565b93508360208202850161175f85611c75565b8060005b8581101561179b578484038952815161177c8582611688565b945061178783611cce565b925060208a01995050600181019050611763565b50829750879550505050505092915050565b60006117b882611cab565b6117c28185611d0a565b93506117cd83611c85565b8060005b838110156117fe5781516117e5888261169c565b97506117f083611cdb565b9250506001810190506117d1565b5085935050505092915050565b61181481611dd9565b82525050565b600061182582611cb6565b61182f8185611d1b565b935061183f818560208601611e1e565b61184881611f8a565b840191505092915050565b600061185e82611cb6565b6118688185611d2c565b9350611878818560208601611e1e565b61188181611f8a565b840191505092915050565b6000611899600b83611d2c565b91506118a482611f9b565b602082019050919050565b60006118bc603783611d2c565b91506118c782611fc4565b604082019050919050565b60006118df602c83611d2c565b91506118ea82612013565b604082019050919050565b6000611902602883611d2c565b915061190d82612062565b604082019050919050565b6000611925601f83611d2c565b9150611930826120b1565b602082019050919050565b600060408301600083015161195360008601826119cf565b506020830151848203602086015261196b828261181a565b9150508091505092915050565b600060608301600083015161199060008601826119cf565b50602083015184820360208601526119a8828261181a565b915050604083015184820360408601526119c2828261181a565b9150508091505092915050565b6119d881611e05565b82525050565b6119e781611e05565b82525050565b60006020820190508181036000830152611a0781846116c3565b905092915050565b60006020820190508181036000830152611a298184611738565b905092915050565b60006020820190508181036000830152611a4b81846117ad565b905092915050565b60006020820190508181036000830152611a6c8161188c565b9050919050565b60006020820190508181036000830152611a8c816118af565b9050919050565b60006020820190508181036000830152611aac816118d2565b9050919050565b60006020820190508181036000830152611acc816118f5565b9050919050565b60006020820190508181036000830152611aec81611918565b9050919050565b6000602082019050611b0860008301846119de565b92915050565b600061012082019050611b24600083018c6119de565b8181036020830152611b36818b611853565b90508181036040830152611b4a818a611853565b9050611b5960608301896116b4565b8181036080830152611b6b8188611853565b905081810360a0830152611b7f8187611853565b9050611b8e60c08301866119de565b611b9b60e08301856119de565b611ba961010083018461180b565b9a9950505050505050505050565b6000611bc1611bd2565b9050611bcd8282611e83565b919050565b6000604051905090565b600067ffffffffffffffff821115611bf757611bf6611f5b565b5b602082029050602081019050919050565b600067ffffffffffffffff821115611c2357611c22611f5b565b5b602082029050602081019050919050565b600067ffffffffffffffff821115611c4f57611c4e611f5b565b5b611c5882611f8a565b9050602081019050919050565b6000819050602082019050919050565b6000819050602082019050919050565b6000819050602082019050919050565b600081519050919050565b600081519050919050565b600081519050919050565b600081519050919050565b6000602082019050919050565b6000602082019050919050565b6000602082019050919050565b600082825260208201905092915050565b600082825260208201905092915050565b600082825260208201905092915050565b600082825260208201905092915050565b600082825260208201905092915050565b6000611d4882611e05565b9150611d5383611e05565b9250827fffffffffffffffffffffffffffffffffffffffffffffffffffffffffffffffff03821115611d8857611d87611efd565b5b828201905092915050565b6000611d9e82611e05565b9150611da983611e05565b925082821015611dbc57611dbb611efd565b5b828203905092915050565b6000611dd282611de5565b9050919050565b60008115159050919050565b600073ffffffffffffffffffffffffffffffffffffffff82169050919050565b6000819050919050565b82818337600083830152505050565b60005b83811015611e3c578082015181840152602081019050611e21565b83811115611e4b576000848401525b50505050565b60006002820490506001821680611e6957607f821691505b60208210811415611e7d57611e7c611f2c565b5b50919050565b611e8c82611f8a565b810181811067ffffffffffffffff82111715611eab57611eaa611f5b565b5b80604052505050565b6000611ebf82611e05565b91507fffffffffffffffffffffffffffffffffffffffffffffffffffffffffffffffff821415611ef257611ef1611efd565b5b600182019050919050565b7f4e487b7100000000000000000000000000000000000000000000000000000000600052601160045260246000fd5b7f4e487b7100000000000000000000000000000000000000000000000000000000600052602260045260246000fd5b7f4e487b7100000000000000000000000000000000000000000000000000000000600052604160045260246000fd5b6000601f19601f8301169050919050565b7f566f746520697320656e64000000000000000000000000000000000000000000600082015250565b7f566f7465206f7074696f6e73206d757374206d6f7265207468616e203020616e60008201527f64206c657373206f7220657175616c207468616e203230000000000000000000602082015250565b7f596f75206d7573742075706c6f6164207469636b65747320636f756e74206f6660008201527f20616c6c206f7074696f6e730000000000000000000000000000000000000000602082015250565b7f766f74654944206d757374206c657373207468616e20636f6e7472616374566f60008201527f7465436f756e7473000000000000000000000000000000000000000000000000602082015250565b7f4f6e6c79204f7267616e697a65722063616e20656e642074686520766f746500600082015250565b6120e381611dc7565b81146120ee57600080fd5b50565b6120fa81611e05565b811461210557600080fd5b5056fea26469706673582212209f2c6962c5943d58cfce20fc5ff9681629d8cd3e48e104405dfdef177956fc8f64736f6c63430008030033",
  "immutableReferences": {},
  "source": "// SPDX-License-Identifier: GPL-3.0\npragma solidity >=0.8.3 <0.9.0;\n/// @title Voting with delegation.\nimport \"./ConvertLib.sol\";\n\ncontract ElectionV2 {\n        // constructor\n    constructor() {\n        // candidate = \"Candidate 1\";\n        // addCandidate(\"Candidate 1\",0);\n        // addCandidate(\"Candidate 2\",0);\n        // addCandidate(\"Candidate 3\",0);\n    }\n\n    struct VoteOption {\n        uint id;\n        string name;\n    }\n\n    struct VoteTicket {\n        uint id;\n        string encryptedBallot;\n        string signature;\n    }\n\n    struct Vote {\n        uint id;\n        string name;\n        string organizerName;\n        address organizerAddress;\n        string publicKey;\n        string privateKey;\n\n        uint voteOptionCount;\n        mapping(uint => VoteOption) voteOptions;\n        mapping(uint => uint) voteResults;\n\n        uint totalVoteCount;\n        mapping(uint => VoteTicket) voteTickets;\n\n        bool voteEnd;\n    }\n\n    // // Store contractVoteCounts count\n    uint public contractVoteCounts;\n\n    mapping(uint => Vote) public contractVotes;\n\n    mapping(address => uint[]) public myOrganizedVotes;  \n\n    function addVote (string memory _name, string memory _organizerName, string memory _publicKey,string[] memory _options) public returns (uint){\n\n        require(_options.length > 0 && _options.length <= 20,\"Vote options must more than 0 and less or equal than 20\");\n        contractVoteCounts++;\n        Vote storage v = contractVotes[contractVoteCounts];\n        v.id = contractVoteCounts;\n        v.name = _name;\n        v.organizerAddress = msg.sender;\n        v.organizerName = _organizerName;\n        v.publicKey = _publicKey;\n        v.totalVoteCount = 0;\n        v.voteOptionCount = 0;\n        v.voteEnd = false;\n        myOrganizedVotes[msg.sender].push(v.id);\n\n        v.voteOptionCount = _options.length;\n        for(uint i = 1; i <= v.voteOptionCount; i++){\n            VoteOption storage vOption = v.voteOptions[i];\n            vOption.id = i;\n            vOption.name = _options[i-1];\n        }\n        return v.id;\n    }\n\n    function getMyOrganizedVotes() external view returns(uint[] memory) {\n        return myOrganizedVotes[msg.sender];\n    }\n\n    function getVoteOptionsByVoteID(uint voteID) public view returns(VoteOption[] memory) {\n        require(voteID > 0 && voteID <= contractVoteCounts, \"voteID must less than contractVoteCounts\");\n        Vote storage v = contractVotes[voteID];\n        VoteOption [] memory voteOptions = new VoteOption[](v.voteOptionCount);\n        for(uint i = 1; i <= v.voteOptionCount; i++){\n            voteOptions[i - 1] = v.voteOptions[i];\n        }\n        return voteOptions;\n    }\n\n    function getVoteTicketsByVoteID(uint voteID) public view returns(VoteTicket[] memory) {\n        require(voteID > 0 && voteID <= contractVoteCounts, \"voteID must less than contractVoteCounts\");\n        Vote storage v = contractVotes[voteID];\n        VoteTicket [] memory tickets = new VoteTicket[](v.totalVoteCount);\n        for(uint i = 1; i <= v.totalVoteCount; i++){\n            tickets[i - 1] = v.voteTickets[i];\n        }\n        return tickets;\n    }\n\n    function getVoteResultsByVoteID(uint voteID) public view returns(uint[] memory) {\n        require(voteID > 0 && voteID <= contractVoteCounts, \"voteID must less than contractVoteCounts\");\n        Vote storage v = contractVotes[voteID];\n        uint [] memory results = new uint[](v.voteOptionCount);\n        for(uint i = 1; i <= v.voteOptionCount; i++){\n            results[i - 1] = v.voteResults[i];\n        }\n        return results;\n    }\n\n    function caseVoteByVoteID(uint voteID, string memory _encryptedBallot, string memory _signature) public{\n        require(voteID > 0 && voteID <= contractVoteCounts, \"voteID must less than contractVoteCounts\");\n        Vote storage v = contractVotes[voteID];\n        require(v.voteEnd == false, \"Vote is end\");\n        v.totalVoteCount++;\n        VoteTicket storage vt = v.voteTickets[v.totalVoteCount];\n        vt.id = v.totalVoteCount;\n        vt.encryptedBallot = _encryptedBallot;\n        vt.signature = _signature;\n    }\n\n    function endVoteByVoteID(uint voteID, string memory _privateKey, uint[] memory voteOptionSuccessTicketCounts) public{\n        require(voteID > 0 && voteID <= contractVoteCounts, \"voteID must less than contractVoteCounts\");\n        Vote storage v = contractVotes[voteID];\n        require(v.organizerAddress == msg.sender,\"Only Organizer can end the vote\");\n        require(voteOptionSuccessTicketCounts.length == v.voteOptionCount,\"You must upload tickets count of all options\");\n        v.privateKey = _privateKey;\n        for(uint i = 0; i < v.voteOptionCount; i++){\n            v.voteResults[i + 1] = voteOptionSuccessTicketCounts[i];\n        }\n        v.voteEnd = true;\n    }\n\n}",
  "sourcePath": "/home/test/blockchain/dapp-vote-v2-typescript/contracts/ElectionV2.sol",
  "compiler": {
    "name": "solc",
    "version": "0.8.3+commit.8d00100c.Emscripten.clang"
  },
  "schemaVersion": "3.1.0",
  "updatedAt": "2021-04-16T15:00:36.102Z",
  "networkType": "ethereum",
  "devdoc": {
    "kind": "dev",
    "methods": {},
    "version": 1
  },
  "userdoc": {
    "kind": "user",
    "methods": {},
    "version": 1
  }
}